{
  "_format": "hh-sol-artifact-1",
  "contractName": "StackUp",
  "sourceName": "contracts/Stackup.sol",
  "abi": [
    {
      "inputs": [],
      "stateMutability": "nonpayable",
      "type": "constructor"
    },
    {
      "anonymous": false,
      "inputs": [
        {
          "indexed": true,
          "internalType": "uint256",
          "name": "questId",
          "type": "uint256"
        },
        {
          "indexed": true,
          "internalType": "address",
          "name": "player",
          "type": "address"
        },
        {
          "indexed": false,
          "internalType": "string",
          "name": "submission",
          "type": "string"
        }
      ],
      "name": "QuestSubmission",
      "type": "event"
    },
    {
      "inputs": [],
      "name": "admin",
      "outputs": [
        {
          "internalType": "address",
          "name": "",
          "type": "address"
        }
      ],
      "stateMutability": "view",
      "type": "function"
    },
    {
      "inputs": [
        {
          "internalType": "string",
          "name": "title_",
          "type": "string"
        },
        {
          "internalType": "uint8",
          "name": "reward_",
          "type": "uint8"
        },
        {
          "internalType": "uint256",
          "name": "numberOfRewards_",
          "type": "uint256"
        }
      ],
      "name": "createQuest",
      "outputs": [],
      "stateMutability": "nonpayable",
      "type": "function"
    },
    {
      "inputs": [
        {
          "internalType": "uint256",
          "name": "questId",
          "type": "uint256"
        }
      ],
      "name": "joinQuest",
      "outputs": [],
      "stateMutability": "nonpayable",
      "type": "function"
    },
    {
      "inputs": [],
      "name": "nextQuestId",
      "outputs": [
        {
          "internalType": "uint256",
          "name": "",
          "type": "uint256"
        }
      ],
      "stateMutability": "view",
      "type": "function"
    },
    {
      "inputs": [
        {
          "internalType": "address",
          "name": "",
          "type": "address"
        },
        {
          "internalType": "uint256",
          "name": "",
          "type": "uint256"
        }
      ],
      "name": "playerQuestStatuses",
      "outputs": [
        {
          "internalType": "enum StackUp.PlayerQuestStatus",
          "name": "",
          "type": "uint8"
        }
      ],
      "stateMutability": "view",
      "type": "function"
    },
    {
      "inputs": [
        {
          "internalType": "address",
          "name": "",
          "type": "address"
        },
        {
          "internalType": "uint256",
          "name": "",
          "type": "uint256"
        }
      ],
      "name": "playerSubmissions",
      "outputs": [
        {
          "internalType": "string",
          "name": "",
          "type": "string"
        }
      ],
      "stateMutability": "view",
      "type": "function"
    },
    {
      "inputs": [
        {
          "internalType": "uint256",
          "name": "",
          "type": "uint256"
        }
      ],
      "name": "quests",
      "outputs": [
        {
          "internalType": "uint256",
          "name": "questId",
          "type": "uint256"
        },
        {
          "internalType": "uint256",
          "name": "numberOfPlayers",
          "type": "uint256"
        },
        {
          "internalType": "string",
          "name": "title",
          "type": "string"
        },
        {
          "internalType": "uint8",
          "name": "reward",
          "type": "uint8"
        },
        {
          "internalType": "uint256",
          "name": "numberOfRewards",
          "type": "uint256"
        }
      ],
      "stateMutability": "view",
      "type": "function"
    },
    {
      "inputs": [
        {
          "internalType": "uint256",
          "name": "questId",
          "type": "uint256"
        },
        {
          "internalType": "uint256",
          "name": "status",
          "type": "uint256"
        },
        {
          "internalType": "address",
          "name": "playerAddr",
          "type": "address"
        }
      ],
      "name": "reviewQuest",
      "outputs": [],
      "stateMutability": "nonpayable",
      "type": "function"
    },
    {
      "inputs": [
        {
          "internalType": "uint256",
          "name": "questId",
          "type": "uint256"
        },
        {
          "internalType": "string",
          "name": "submission",
          "type": "string"
        }
      ],
      "name": "submitQuest",
      "outputs": [],
      "stateMutability": "nonpayable",
      "type": "function"
    }
  ],
  "bytecode": "0x608060405234801561001057600080fd5b50336000806101000a81548173ffffffffffffffffffffffffffffffffffffffff021916908373ffffffffffffffffffffffffffffffffffffffff1602179055506117b0806100606000396000f3fe608060405234801561001057600080fd5b50600436106100935760003560e01c80637ae91eae116100665780637ae91eae1461010857806399f7358c14610138578063d638c98314610168578063e085f98014610186578063f851a440146101ba57610093565b8063140bbfb2146100985780632d96e8f2146100b4578063519a4616146100d057806378ff2bda146100ec575b600080fd5b6100b260048036038101906100ad9190610c60565b6101d8565b005b6100ce60048036038101906100c99190610d51565b610475565b005b6100ea60048036038101906100e59190610dc5565b6105b6565b005b61010660048036038101906101019190610e25565b610814565b005b610122600480360381019061011d9190610e52565b6109f1565b60405161012f9190610f22565b60405180910390f35b610152600480360381019061014d9190610e52565b610a9e565b60405161015f9190610fbb565b60405180910390f35b610170610acd565b60405161017d9190610fe5565b60405180910390f35b6101a0600480360381019061019b9190610e25565b610ad3565b6040516101b195949392919061100f565b60405180910390f35b6101c2610b9e565b6040516101cf9190611078565b60405180910390f35b60008054906101000a900473ffffffffffffffffffffffffffffffffffffffff1673ffffffffffffffffffffffffffffffffffffffff163373ffffffffffffffffffffffffffffffffffffffff1614610266576040517f08c379a000000000000000000000000000000000000000000000000000000000815260040161025d90611105565b60405180910390fd5b8260006002600083815260200190815260200160002060030160009054906101000a900460ff1660ff16036102d0576040517f08c379a00000000000000000000000000000000000000000000000000000000081526004016102c790611171565b60405180910390fd5b600260058111156102e4576102e3610f44565b5b600360008473ffffffffffffffffffffffffffffffffffffffff1673ffffffffffffffffffffffffffffffffffffffff168152602001908152602001600020600086815260200190815260200160002060009054906101000a900460ff16600581111561035457610353610f44565b5b14610394576040517f08c379a000000000000000000000000000000000000000000000000000000000815260040161038b90611203565b60405180910390fd5b600383101580156103a6575060058311155b6103e5576040517f08c379a00000000000000000000000000000000000000000000000000000000081526004016103dc9061126f565b60405180910390fd5b8260058111156103f8576103f7610f44565b5b600360008473ffffffffffffffffffffffffffffffffffffffff1673ffffffffffffffffffffffffffffffffffffffff168152602001908152602001600020600086815260200190815260200160002060006101000a81548160ff0219169083600581111561046a57610469610f44565b5b021790555050505050565b60008054906101000a900473ffffffffffffffffffffffffffffffffffffffff1673ffffffffffffffffffffffffffffffffffffffff163373ffffffffffffffffffffffffffffffffffffffff1614610503576040517f08c379a00000000000000000000000000000000000000000000000000000000081526004016104fa90611105565b60405180910390fd5b60015460026000600154815260200190815260200160002060000181905550838360026000600154815260200190815260200160002060020191826105499291906114d5565b508160026000600154815260200190815260200160002060030160006101000a81548160ff021916908360ff1602179055508060026000600154815260200190815260200160002060040181905550600160008154809291906105ab906115d4565b919050555050505050565b8260006002600083815260200190815260200160002060030160009054906101000a900460ff1660ff1603610620576040517f08c379a000000000000000000000000000000000000000000000000000000000815260040161061790611171565b60405180910390fd5b6001600581111561063457610633610f44565b5b600360003373ffffffffffffffffffffffffffffffffffffffff1673ffffffffffffffffffffffffffffffffffffffff168152602001908152602001600020600086815260200190815260200160002060009054906101000a900460ff1660058111156106a4576106a3610f44565b5b146106e4576040517f08c379a00000000000000000000000000000000000000000000000000000000081526004016106db90611668565b60405180910390fd5b6002600360003373ffffffffffffffffffffffffffffffffffffffff1673ffffffffffffffffffffffffffffffffffffffff168152602001908152602001600020600086815260200190815260200160002060006101000a81548160ff0219169083600581111561075857610757610f44565b5b02179055508282600460003373ffffffffffffffffffffffffffffffffffffffff1673ffffffffffffffffffffffffffffffffffffffff168152602001908152602001600020600087815260200190815260200160002091826107bc9291906114d5565b503373ffffffffffffffffffffffffffffffffffffffff16847fb2728df95fc176012eae3bfc3b6ca40fd11c2e0c33f43f11db7f3da88e4d52b485856040516108069291906116c4565b60405180910390a350505050565b8060006002600083815260200190815260200160002060030160009054906101000a900460ff1660ff160361087e576040517f08c379a000000000000000000000000000000000000000000000000000000000815260040161087590611171565b60405180910390fd5b6000600581111561089257610891610f44565b5b600360003373ffffffffffffffffffffffffffffffffffffffff1673ffffffffffffffffffffffffffffffffffffffff168152602001908152602001600020600084815260200190815260200160002060009054906101000a900460ff16600581111561090257610901610f44565b5b14610942576040517f08c379a00000000000000000000000000000000000000000000000000000000081526004016109399061175a565b60405180910390fd5b6001600360003373ffffffffffffffffffffffffffffffffffffffff1673ffffffffffffffffffffffffffffffffffffffff168152602001908152602001600020600084815260200190815260200160002060006101000a81548160ff021916908360058111156109b6576109b5610f44565b5b021790555060006002600084815260200190815260200160002090508060010160008154809291906109e7906115d4565b9190505550505050565b6004602052816000526040600020602052806000526040600020600091509150508054610a1d906112f8565b80601f0160208091040260200160405190810160405280929190818152602001828054610a49906112f8565b8015610a965780601f10610a6b57610100808354040283529160200191610a96565b820191906000526020600020905b815481529060010190602001808311610a7957829003601f168201915b505050505081565b60036020528160005260406000206020528060005260406000206000915091509054906101000a900460ff1681565b60015481565b6002602052806000526040600020600091509050806000015490806001015490806002018054610b02906112f8565b80601f0160208091040260200160405190810160405280929190818152602001828054610b2e906112f8565b8015610b7b5780601f10610b5057610100808354040283529160200191610b7b565b820191906000526020600020905b815481529060010190602001808311610b5e57829003601f168201915b5050505050908060030160009054906101000a900460ff16908060040154905085565b60008054906101000a900473ffffffffffffffffffffffffffffffffffffffff1681565b600080fd5b600080fd5b6000819050919050565b610bdf81610bcc565b8114610bea57600080fd5b50565b600081359050610bfc81610bd6565b92915050565b600073ffffffffffffffffffffffffffffffffffffffff82169050919050565b6000610c2d82610c02565b9050919050565b610c3d81610c22565b8114610c4857600080fd5b50565b600081359050610c5a81610c34565b92915050565b600080600060608486031215610c7957610c78610bc2565b5b6000610c8786828701610bed565b9350506020610c9886828701610bed565b9250506040610ca986828701610c4b565b9150509250925092565b600080fd5b600080fd5b600080fd5b60008083601f840112610cd857610cd7610cb3565b5b8235905067ffffffffffffffff811115610cf557610cf4610cb8565b5b602083019150836001820283011115610d1157610d10610cbd565b5b9250929050565b600060ff82169050919050565b610d2e81610d18565b8114610d3957600080fd5b50565b600081359050610d4b81610d25565b92915050565b60008060008060608587031215610d6b57610d6a610bc2565b5b600085013567ffffffffffffffff811115610d8957610d88610bc7565b5b610d9587828801610cc2565b94509450506020610da887828801610d3c565b9250506040610db987828801610bed565b91505092959194509250565b600080600060408486031215610dde57610ddd610bc2565b5b6000610dec86828701610bed565b935050602084013567ffffffffffffffff811115610e0d57610e0c610bc7565b5b610e1986828701610cc2565b92509250509250925092565b600060208284031215610e3b57610e3a610bc2565b5b6000610e4984828501610bed565b91505092915050565b60008060408385031215610e6957610e68610bc2565b5b6000610e7785828601610c4b565b9250506020610e8885828601610bed565b9150509250929050565b600081519050919050565b600082825260208201905092915050565b60005b83811015610ecc578082015181840152602081019050610eb1565b60008484015250505050565b6000601f19601f8301169050919050565b6000610ef482610e92565b610efe8185610e9d565b9350610f0e818560208601610eae565b610f1781610ed8565b840191505092915050565b60006020820190508181036000830152610f3c8184610ee9565b905092915050565b7f4e487b7100000000000000000000000000000000000000000000000000000000600052602160045260246000fd5b60068110610f8457610f83610f44565b5b50565b6000819050610f9582610f73565b919050565b6000610fa582610f87565b9050919050565b610fb581610f9a565b82525050565b6000602082019050610fd06000830184610fac565b92915050565b610fdf81610bcc565b82525050565b6000602082019050610ffa6000830184610fd6565b92915050565b61100981610d18565b82525050565b600060a0820190506110246000830188610fd6565b6110316020830187610fd6565b81810360408301526110438186610ee9565b90506110526060830185611000565b61105f6080830184610fd6565b9695505050505050565b61107281610c22565b82525050565b600060208201905061108d6000830184611069565b92915050565b7f4f6e6c79207468652061646d696e2063616e20706572666f726d20746869732060008201527f616374696f6e0000000000000000000000000000000000000000000000000000602082015250565b60006110ef602683610e9d565b91506110fa82611093565b604082019050919050565b6000602082019050818103600083015261111e816110e2565b9050919050565b7f517565737420646f6573206e6f74206578697374000000000000000000000000600082015250565b600061115b601483610e9d565b915061116682611125565b602082019050919050565b6000602082019050818103600083015261118a8161114e565b9050919050565b7f54686520706c61796572206e65656420746f207375626d69747420746865207160008201527f7565737400000000000000000000000000000000000000000000000000000000602082015250565b60006111ed602483610e9d565b91506111f882611191565b604082019050919050565b6000602082019050818103600083015261121c816111e0565b9050919050565b7f496e76616c696420737461747573000000000000000000000000000000000000600082015250565b6000611259600e83610e9d565b915061126482611223565b602082019050919050565b600060208201905081810360008301526112888161124c565b9050919050565b600082905092915050565b7f4e487b7100000000000000000000000000000000000000000000000000000000600052604160045260246000fd5b7f4e487b7100000000000000000000000000000000000000000000000000000000600052602260045260246000fd5b6000600282049050600182168061131057607f821691505b602082108103611323576113226112c9565b5b50919050565b60008190508160005260206000209050919050565b60006020601f8301049050919050565b600082821b905092915050565b60006008830261138b7fffffffffffffffffffffffffffffffffffffffffffffffffffffffffffffffff8261134e565b611395868361134e565b95508019841693508086168417925050509392505050565b6000819050919050565b60006113d26113cd6113c884610bcc565b6113ad565b610bcc565b9050919050565b6000819050919050565b6113ec836113b7565b6114006113f8826113d9565b84845461135b565b825550505050565b600090565b611415611408565b6114208184846113e3565b505050565b5b818110156114445761143960008261140d565b600181019050611426565b5050565b601f8211156114895761145a81611329565b6114638461133e565b81016020851015611472578190505b61148661147e8561133e565b830182611425565b50505b505050565b600082821c905092915050565b60006114ac6000198460080261148e565b1980831691505092915050565b60006114c5838361149b565b9150826002028217905092915050565b6114df838361128f565b67ffffffffffffffff8111156114f8576114f761129a565b5b61150282546112f8565b61150d828285611448565b6000601f83116001811461153c576000841561152a578287013590505b61153485826114b9565b86555061159c565b601f19841661154a86611329565b60005b828110156115725784890135825560018201915060208501945060208101905061154d565b8683101561158f578489013561158b601f89168261149b565b8355505b6001600288020188555050505b50505050505050565b7f4e487b7100000000000000000000000000000000000000000000000000000000600052601160045260246000fd5b60006115df82610bcc565b91507fffffffffffffffffffffffffffffffffffffffffffffffffffffffffffffffff8203611611576116106115a5565b5b600182019050919050565b7f506c61796572206d757374206669727374206a6f696e20746865207175657374600082015250565b6000611652602083610e9d565b915061165d8261161c565b602082019050919050565b6000602082019050818103600083015261168181611645565b9050919050565b82818337600083830152505050565b60006116a38385610e9d565b93506116b0838584611688565b6116b983610ed8565b840190509392505050565b600060208201905081810360008301526116df818486611697565b90509392505050565b7f506c617965722068617320616c7265616479206a6f696e65642f7375626d697460008201527f7465642074686973207175657374000000000000000000000000000000000000602082015250565b6000611744602e83610e9d565b915061174f826116e8565b604082019050919050565b6000602082019050818103600083015261177381611737565b905091905056fea2646970667358221220763e6817fcdf6502ced4f2d7c7fcd77422e22f4ab8de1cd4d797ccda1c2d299e64736f6c63430008110033",
  "linkReferences": {},
  "deployedLinkReferences": {}
}